:020000040800F2
:10000000600A0020CD010008BD04000815040008A6
:10001000B90400087D0200080B0E00080000000073
:100020000000000000000000000000004906000879
:100030008102000800000000310500085D0700088B
:10004000E7010008E7010008E7010008E7010008F0
:10005000E7010008E7010008E7010008E7010008E0
:10006000E7010008E7010008E7010008E7010008D0
:10007000E7010008E7010008E7010008E7010008C0
:10008000E7010008E7010008E7010008E7010008B0
:10009000E7010008E7010008E7010008E7010008A0
:1000A000E7010008E7010008E7010008E701000890
:1000B000E7010008C1070008E7010008E7010008A0
:1000C000E7010008E7010008E7010008E701000870
:1000D000E7010008C10A00088D0B0008E7010008CD
:1000E000E7010008E7010008E7010008E701000850
:1000F000E7010008E7010008E7010008E701000840
:10010000E7010008E7010008E7010008E70100082F
:1001100039090008FD090008E7010008E7010008A7
:10012000E7010008E7010008E7010008E70100080F
:1001300000F002F800F03AF80AA090E8000C8244BF
:100140008344AAF10107DA4501D100F02FF8AFF29C
:10015000090EBAE80F0013F0010F18BFFB1A43F0A5
:1001600001031847781C0000981C0000103A24BFB7
:1001700078C878C1FAD8520724BF30C830C144BF0C
:1001800004680C607047000000230024002500264E
:10019000103A28BF78C1FBD8520728BF30C148BFEA
:1001A0000B6070471FB51FBD10B510BD00F033F8D0
:1001B0001146FFF7F7FF01F005F800F051F803B41E
:1001C000FFF7F2FF03BC00F022FE00000948804761
:1001D00009480047FEE7FEE7FEE7FEE7FEE7FEE729
:1001E000FEE7FEE7FEE7FEE704480549054A064B41
:1001F000704700006107000831010008600400201A
:10020000600A0020600600206006002070477047EA
:10021000704770477047754600F02CF8AE460500F1
:100220006946534620F00700854618B020B5FFF711
:10023000DBFFBDE820404FF000064FF000074FF015
:1002400000084FF0000B21F00701AC46ACE8C009F4
:10025000ACE8C009ACE8C009ACE8C0098D467047FD
:1002600010B50446AFF300802046BDE81040FFF70C
:10027000A6BF0000004870470004002000BFFEE752
:1002800070472DE9F041024600250026002000239A
:100290000024002791F803C00CF00F0591F803C06B
:1002A0000CF0100CBCF1000F03D091F802C04CEA26
:1002B000050591F800C0BCF1000F31D01468002092
:1002C0002BE04FF0010C0CFA00F3B1F800C00CEA7F
:1002D00003069E4220D183004FF00F0C0CFA03F767
:1002E000BC4305FA03FC4CEA040491F803C0BCF1DA
:1002F000280F06D14FF0010C0CFA00FCC2F814C014
:100300000AE091F803C0BCF1480F05D14FF0010C91
:100310000CFA00FCC2F810C0401C0828D1D31460AD
:10032000B1F800C0BCF1FF0F34DD546800202EE0AE
:1003300000F1080C4FF0010808FA0CF3B1F800C006
:100340000CEA03069E4221D183004FF00F0C0CFAF9
:1003500003F7BC4305FA03FC4CEA040491F803C01C
:10036000BCF1280F05D100F1080C08FA0CF8C2F80E
:10037000148091F803C0BCF1480F07D100F1080CBC
:100380004FF0010808FA0CF8C2F81080401C082849
:10039000CED35460BDE8F0810246002093680B4044
:1003A0000BB1012000E00020704700000EB5174897
:1003B000006802901548001D00680190134808303D
:1003C000006800900098000E114988710098000C98
:1003D000C8710098000A0872009848720198000ECF
:1003E00088720198000CC8720198000A087301987D
:1003F00048730298000E88730298000CC873029824
:10040000000A0874029848740EBD0000E8F7FF1F48
:100410005000002000BFFEE708B501214FF4FE7038
:1004200000F098F810208DF8030003208DF80200EA
:100430000A20ADF8000069461848FFF722FF4AF687
:100440002810ADF8000069461548FFF71AFF48F27A
:10045000AA20ADF8000069461248FFF712FF0A20F3
:10046000ADF8000069461048FFF70BFFA220ADF879
:10047000000069460D48FFF704FF4AF64200ADF858
:10048000000069460A48FFF7FCFE42F65020ADF82E
:10049000000069460748FFF7F4FE08BD0020014050
:1004A00000180140001C01400010014000080140FC
:1004B000000C01400014014000BFFEE7704700003F
:1004C00070B5002100230F22C47804B3154C2468B2
:1004D00004F4E064C4F5E064210AC1F10403CA40F5
:1004E000447804FA03F184781440214309010E4C46
:1004F0000678A155047804F01F050124AC40057866
:100500006D11AD0005F1E025C5F8004109E0047862
:1005100004F01F050124AC40044D0678761145F81F
:10052000264070BD0CED00E000E400E080E100E05A
:100530007047000029B1064AD2690243044BDA61D0
:1005400004E0034AD2698243014BDA61704700003C
:100550000010024029B1064A92690243044B9A6195
:1005600004E0034A92698243014B9A61704700009C
:100570000010024030B500210022002400232D4D40
:100580006D6805F00C0121B1042905D0082923D19B
:1005900005E0294D056022E0274D05601FE0254D4F
:1005A0006D6805F47012234D6D6805F480340225E2
:1005B00005EB92421CB9214D554305600BE01D4DE2
:1005C0006D6805F400351DB11C4D5543056002E012
:1005D000194D5543056002E0174D056000BF00BF8F
:1005E000144D6D6805F0F0010909154D6B5C056847
:1005F000DD4045600F4D6D6805F4E061090A104D5E
:100600006B5C4568DD4085600A4D6D6805F460519E
:10061000C90A0B4D6B5C4568DD40C560054D6D68D2
:1006200005F44041890B074D6B5CC568B5FBF3F5DC
:10063000056130BD0010024000127A0000093D0043
:100640001400002024000020704710B500F002F8CC
:1006500010BD00000CB500200190009033480068E8
:1006600040F480303149086000BF3048006800F431
:10067000003000900198401C0190009818B9019832
:10068000B0F5A06FF1D12948006800F4003010B136
:100690000120009001E0002000900098012843D143
:1006A0002348006840F010002149086008460068AF
:1006B00020F0030008600846006840F0020008606F
:1006C0001A4840681949486008464068486008462A
:1006D000406840F4806048600846406820F47C1020
:1006E00048600846406840F4E810486008460068E2
:1006F00040F08070086000BF0C48006800F0007097
:100700000028F9D00948406820F0030007494860F4
:100710000846406840F00200486000BF0348406857
:1007200000F00C000828F9D10CBD000000100240B8
:1007300000200240042808D14FF0E021096941F06F
:1007400004014FF0E022116107E04FF0E021096958
:1007500021F004014FF0E022116170477047000062
:1007600010B51348006840F00100114908600846C0
:100770004068104908400E494860084600680E4924
:1007800008400B4908600846006820F48020086093
:100790000846406820F4FE0048604FF41F0088605F
:1007A000FFF753FF4FF000600449086010BD0000E0
:1007B000001002400000FFF8FFFFF6FE08ED00E029
:1007C00010B50121054800F04AF828B1012103487D
:1007D00000F036F800F00CFE10BD000000040040F0
:1007E0007FB505460C4601210220FFF7A3FEADF8B8
:1007F0000850ADF804400020ADF80A00ADF806003E
:1008000001A90E4800F046F8012211460B4800F0FD
:1008100037F81D208DF8000000208DF8010003201E
:100820008DF8020001208DF803006846FFF748FEAE
:100830000121024800F007F87FBD000000040040DD
:10084000CA430282704721B1028842F0010202804D
:1008500004E002884FF6FE731A400280704730B5FC
:100860000246002000230024158A05EA0103958929
:1008700005EA010413B10CB1012000E0002030BDF5
:100880001AB183890B43838102E083898B4383817F
:1008900070470000002202881D4B98420ED01D4B6D
:1008A00098420BD0B0F1804F08D01B4B984205D036
:1008B0001A4B984202D01A4B984204D14FF68F73CC
:1008C0001A404B881A43174B984207D0164B984250
:1008D00004D04FF6FF431A40CB881A4302808B881E
:1008E00083850B8803850A4B98420BD0094B9842AD
:1008F00008D00E4B984205D00D4B984202D00D4BBC
:10090000984201D10B7A038601238382704700004D
:10091000002C014000340140000400400008004069
:10092000000C004000100040001400400040014056
:10093000004401400048014010B540F225512B48C9
:1009400000F09FF9002850D0284800F055FAC4B2B2
:10095000FF2C1BD12648007810B101280BD106E0EE
:1009600000202449087001202149087003E002207A
:100970001F49087000BF00BF1F481E490978445432
:100980001C480078401C1B4908702EE0FE2C1FD12B
:1009900017480078022802D003280AD103E0032078
:1009A0001349087009E004201149087000F07AFD2D
:1009B00003E002200E49087000BF00BF0E480D4939
:1009C000097844540B480078401C0A4908700CE030
:1009D00007480078022808D1074806490978445496
:1009E00004480078401C0349087010BD004C0040CA
:1009F00038000020390000206C01002010B540F2C2
:100A000025512B4800F03DF9002850D0284800F02F
:100A1000F3F9C4B2FF2C1BD12648007810B101288D
:100A20000BD106E0002024490870012021490870FC
:100A300003E002201F49087000BF00BF1F481E4985
:100A4000097844541C480078401C1B4908702EE06B
:100A5000FE2C1FD117480078022802D003280AD1A3
:100A600003E003201349087009E0042011490870CD
:100A700000F018FD03E002200E49087000BF00BF1F
:100A80000E480D49097844540B480078401C0A4927
:100A900008700CE007480078022808D1074806498A
:100AA0000978445404480078401C0349087010BD7C
:100AB000005000403600002037000020D001002008
:100AC00010B540F225512D4800F0DBF8002854D035
:100AD0002A4800F091F9C4B2FF2C1BD128480078B5
:100AE00010B101280BD106E0002026490870012032
:100AF0002349087003E002202149087000BF00BFAD
:100B000021482049097844541E480078401C1D495A
:100B1000087032E0FE2C1FD119480078022802D05C
:100B200003280AD103E003201549087009E00420D6
:100B30001349087000F0B6FC03E002201049087069
:100B400000BF00BF10480F49097844540D48007891
:100B5000401C0C49087010E009480078022809D1AF
:100B6000094808490978445406480078401C05495A
:100B7000087002E0204600F073F910BD0038014013
:100B80003C0000203D000020A400002010B540F2F1
:100B900025512B4800F075F8002850D0284800F067
:100BA0002BF9C4B2FF2C1BD12648007810B10128C4
:100BB0000BD106E00020244908700120214908706B
:100BC00003E002201F49087000BF00BF1F481E49F4
:100BD000097844541C480078401C1B4908702EE0DA
:100BE000FE2C1FD117480078022802D003280AD112
:100BF00003E003201349087009E00420114908703C
:100C000000F050FC03E002200E49087000BF00BF56
:100C10000E480D49097844540B480078401C0A4995
:100C200008700CE007480078022808D107480649F8
:100C30000978445404480078401C0349087010BDEA
:100C4000004400403A0000203B0000200801002042
:100C500021B1828942F40052828104E082894DF6FA
:100C6000FF731A408281704702460020B1F5007F71
:100C700000D100BF13880B400BB1012000E0002021
:100C8000704770B50246002400230025002040F67E
:100C90006A16B14200D100BFC1F3421501F01F0333
:100CA000012606FA03F3012D02D19689334006E0AE
:100CB000022D02D1168A334001E0968A33400C128D
:100CC000012606FA04F41688344013B10CB1012051
:100CD00000E0002070BDF0B503460024002600258A
:100CE000002040F66A17B94200D100BF1846C1F390
:100CF000421401F01F06012707FA06F5012C01D165
:100D00000C3004E0022C01D1103000E014301AB194
:100D100007682F43076002E00768AF430760F0BD34
:100D20002DE9F04786B005460E460024A24600BFD6
:100D3000A1460027B08900B100BF2F462C8A4CF68F
:100D4000FF700440F08804432C82AC894EF6F31007
:100D50000440B08831890843718908430443AC8159
:100D6000AC8A4FF6FF400440B0890443AC8201A82E
:100D7000FFF700FC1F48874202D1DDF810A001E018
:100D8000DDF80CA0A88900F4004040B10AEBCA00CD
:100D900000EB0A1031684900B0FBF1F807E00AEBFC
:100DA000CA0000EB0A1031688900B0FBF1F864203A
:100DB000B8FBF0F004012009642101FB1089A88927
:100DC00000F4004040B1322000EBC900B0FBF1F06C
:100DD00000F00700044308E0322000EB0910642112
:100DE000B0FBF1F000F00F0004432C8106B0BDE829
:100DF000F08700000038014001468888C0F30800F1
:100E00007047C1F308028280704700BFFEE70146C9
:100E100000BF704700B5002300BF04E0184600F093
:100E20009DFC581CC3B21C2BF8DB00BD70B50446FA
:100E30000D4600260DE03046721CD6B2215C0748F4
:100E4000FFF7DFFF00BF80210448FFF70DFF0028F8
:100E5000F9D0AE42EFDB002670BD00000038014043
:100E60001849098801F4004159BB1649098801F461
:100E7000804161B10D2803D00021124A118020E089
:100E80001049098841F400410E4A118019E00A28EE
:100E900006D10C49098841F480410A4A118010E0CA
:100EA00008490988C1F30D01074A505405490988CA
:100EB000491C044A118011460988632901DD00217B
:100EC00011807047300000203402002070B50446C5
:100ED000204600F0EBFCA11CC8B200F0E7FC0120AA
:100EE00000F018F9204600F0B5F90546204600F05C
:100EF00035FCA11CC8B200F031FC1DB10120054930
:100F0000086002E00020034908600DB9012070BDAF
:100F10000020FCE78C012442F8B5002400260025BF
:100F200000F06CFD5A480078042875D100F0C0FB31
:100F3000584890F8030100286FD0564880785649E9
:100F40000870084600781A280FDD08460078401E11
:100F50001A2190FBF1F0C5B24F48007890FBF1F2F6
:100F600001FB1200C4B204B91A244A4890F80201E5
:100F7000212840D008DC10280FD0112826D01228B4
:100F800063D020287DD11AE0232831D0402872D0A8
:100F9000502873D0602874D12EE0FFF73BFF1DB9B5
:100FA00001203E49087007E0092003463C4A2146DB
:100FB0000090284600F0DAFA00F038FA61E035498E
:100FC000887800F003F900F031FA5AE02DB90020DA
:100FD00032490870FFF71EFF07E009200346314A37
:100FE00021460090284600F0C1FA00F01FFA48E0C0
:100FF00000F05EFA45E044E0264884781A2C0DDCC7
:101000002046FFF763FF0646224890F8012131464B
:10101000204600F027FA17E039E033E01A2094FB6D
:10102000F0F0C5B21A2094FBF0F100FB1140C4B2FD
:1010300004B91A24174890F8010109231A4A2146D5
:101040000090284600F092FA1BE03DB902201349B7
:101050000870104880781049087007E0092003469E
:10106000124A21460090284600F080FA00F0DEF98E
:1010700007E000E002E000F041FA02E000F05AFA76
:1010800000BF00BF00200249087009490870F8BD80
:101090003C000020FC0200209C0000209E0000205C
:1010A0006D00002076000020880000207F000020D6
:1010B0003D00002010B505480078012804D1FFF755
:1010C0002BFF00200149087010BD000034000020F3
:1010D00010B56FF00400FFF72DFB0A4800680A49BD
:1010E000B0FBF1F0094908700846007800EB4001B8
:1010F000C1EBC0104FF6FF7101EAC000044908803F
:1011000010BD00000000002000127A00280000201E
:101110002A0000200146114A12884A434FF0E0237A
:101120005A6100229A611A46126942F001021A615C
:1011300000BF4FF0E022106900F001021AB100F484
:101140008032002AF5D04FF0E022126922F001022D
:101150004FF0E0231A6100229A6170472A000020B4
:1011600000B503460948007818B1184600F09EFB08
:1011700002E0184600F0F2FA0448007808B90120AD
:1011800000E000200149087000BD00009B00002025
:1011900010B50A48007820B1012803D002280BD1ED
:1011A00005E009E006480078FFF7DAFF04E00448AC
:1011B000007800F07BFB00BF00BF10BD9E00002048
:1011C0009C00002000F050FA00BFFEE710B5044676
:1011D000012C06D0022C10D0032C1BD0042C33D1B0
:1011E00025E00120194908604FF4FA70FFF792FFDB
:1011F00000201749C1F8A40126E001201349091F66
:1012000008604FF4FA70FFF785FF00201049C1F81D
:10121000A00119E001200D49083908604FF4FA7067
:10122000FFF778FF00200A49C1F89C010CE001207B
:1012300006490C3908604FF4FA70FFF76BFF002085
:101240000349C1F8980100BF00BF10BDA48121422D
:101250000080214270B5044600251B2C14D2DFE823
:1012600004F0B50E141A20262D33393F454B515743
:101270005E646A71787F868D949BA2A9AF0001217C
:101280005448FFF789F80546A0E004215148FFF7CC
:1012900083F805469AE010214E48FFF77DF8054691
:1012A00094E040214B48FFF777F805468EE04FF475
:1012B00080714848FFF770F8054687E001214648ED
:1012C000FFF76AF8054681E004214348FFF764F818
:1012D00005467BE001214148FFF75EF8054675E0D1
:1012E00020213F48FFF758F805466FE010213B48A2
:1012F000FFF752F8054669E040213848FFF74CF8FF
:10130000054663E001213648FFF746F805465DE0F3
:101310004FF480412F48FFF73FF8054656E0012182
:101320003048FFF739F8054650E080212E48FFF796
:1013300033F805464AE04FF480612B48FFF72CF85C
:10134000054643E04FF480512748FFF725F805464E
:101350003CE04FF480412448FFF71EF8054635E095
:101360004FF480611E48FFF717F805462EE04FF452
:1013700080511B48FFF710F8054627E04FF48041E5
:101380001748FFF709F8054620E04FF48071174829
:10139000FFF702F8054619E04FF480611348FEF7A5
:1013A000FBFF054612E04FF480511048FEF7F4FFB2
:1013B00005460BE020210D48FEF7EEFF054605E04F
:1013C00008210A48FEF7E8FF054600BF00BF28468F
:1013D00070BD0000001C01400010014000080140E9
:1013E000000C0140002001400018014000140140A1
:1013F00010B50D480088401C0B490880FFF75AFEC5
:1014000009480088142190FBF1F201FB120008B991
:10141000FFF7BEFE0448008842F21071884202DDE8
:1014200000200149088010BDA000002070B50024F4
:1014300000250A4890F8010109490871032405E0D4
:101440000748005D2844C5B2601CC4B2062CF7DB17
:10145000034885700821FFF7E9FC70BDFC020020FD
:101460003E0000202DE9F04105460E4617460024B7
:10147000A0460B480771C6718571032406E0084831
:10148000005D404400F0FF08601CC4B2082CF6DB8D
:10149000034880F802800A21FFF7C8FCBDE8F0810C
:1014A000910000200120014908707047340000209D
:1014B00070B50024002520210D48FEF76DFF06467B
:1014C0000C4890F801010C49087108468671032404
:1014D00005E00948005D2844C5B2601CC4B2072C71
:1014E000F7DB054885700921FFF7A0FC70BD0000FF
:1014F000000C0140FC0200206400002070B50024B4
:1015000000250A4890F8010109490871032405E003
:101510000748005D2844C5B2601CC4B2082CF7DB44
:10152000034885700A21FFF781FC70BDFC02002092
:101530004600002070B5002400250A4890F80101FB
:1015400009490871032405E00748005D2844C5B235
:10155000601CC4B2122CF7DB034885701421FFF71E
:1015600065FC70BDFC020020500000202DE9F04712
:1015700006460F4614469846DDF82090A77184F879
:1015800004900020A070032505E0A078615D084468
:10159000A070681CC5B2072DF7DB012E04D0022E07
:1015A00007D0032E0FD109E04146204600F0CAFAC9
:1015B00009E04146204600F031FB04E04146204668
:1015C00000F09AFB00BF00BFBDE8F08708B501211D
:1015D0004FF4FE70FEF7BEFF48208DF8030044F282
:1015E0005510ADF8000069461848FEF74AFE052080
:1015F000ADF8000069461648FEF743FE5120ADF8ED
:10160000000069461348FEF73CFE45F22140ADF864
:10161000000069461048FEF734FE0120ADF80000D6
:1016200069460E48FEF72DFE4FF4A940ADF80000C4
:1016300069460B48FEF725FE41F22850ADF8000040
:1016400069460848FEF71DFE08BD0000001C014069
:101650000010014000080140000C01400020014042
:10166000001801400014014010B5FFF731FD4FF4A0
:10167000165000F017FA4FF4165000F07DFA4FF4B0
:10168000165000F0E5FA4FF4165000F04FFBFEF74D
:10169000C3FEFFF79BFF41F61F4140F2F310FFF737
:1016A0009FF8FEF783FE00F001F810BD70470000C0
:1016B00010B500210020264A1278FF2A43D1244A7F
:1016C0005278FF2A3FD1234A1278921E204B9A5C0F
:1016D000FE2A38D11F4A1278521E9A5CFE2A32D155
:1016E0001A4692781C4B83F80021194AD27883F865
:1016F000FF20174A127983F80121154A527983F89D
:10170000022103200BE0124A125C0A44D1B2104BB2
:10171000421C9B5CC21E104CA354421CD0B20D4A0A
:101720001278921E8242EEDC0B4A92F800218A4225
:1017300004D10122084B83F8032108E00022064B64
:1017400083F8032103E00022034B83F8032110BD3B
:10175000A40000203D000020FC0200201D2813D220
:10176000DFE800F0940F13181C21262B3034393D8C
:1017700041464B5055595E63686D72777C80858A0F
:101780008F000021424A116080E00021404A083267
:1017900011607BE000213F4A116077E000213D4A63
:1017A0000832116072E000213A4A103211606DE097
:1017B0000021384A1832116068E00021354A203291
:1017C000116063E00021344A11605FE00021324A79
:1017D000083211605AE00021304A116056E00021C1
:1017E0002F4A116052E000212C4A103211604DE066
:1017F00000212A4A1832116048E00021284A143A90
:10180000116043E00021234A383211603EE000219C
:10181000244A11603AE000211D4A1432116035E07B
:1018200000211B4A2032116030E00021184A283282
:1018300011602BE00021164A3032116026E00021B1
:10184000174A1432116021E00021154A1C32116040
:101850001CE00021124A2432116017E00021124AD4
:10186000116013E00021104A083211600EE00021DF
:101870000D4A1032116009E000210B4A0C3A116048
:1018800004E00021084A143A116000BF00BF70470D
:101890008C0123428481234284012242840121421B
:1018A0009881214284012442A48122421D2813D21E
:1018B000DFE800F0940F13181C21262B3034393D3B
:1018C00041464B5055595E63686D72777C80858ABE
:1018D0008F000121424A116080E00121404A083214
:1018E00011607BE001213F4A116077E001213D4A10
:1018F0000832116072E001213A4A103211606DE045
:101900000121384A1832116068E00121354A20323D
:10191000116063E00121344A11605FE00121324A25
:10192000083211605AE00121304A116056E001216D
:101930002F4A116052E001212C4A103211604DE013
:1019400001212A4A1832116048E00121284A143A3C
:10195000116043E00121234A383211603EE0012149
:10196000244A11603AE001211D4A1432116035E029
:1019700001211B4A2032116030E00121184A28322F
:1019800011602BE00121164A3032116026E001215E
:10199000174A1432116021E00121154A1C321160EE
:1019A0001CE00121124A2432116017E00121124A81
:1019B000116013E00121104A083211600EE001218C
:1019C0000D4A1032116009E001210B4A0C3A1160F6
:1019D00004E00121084A143A116000BF00BF7047BB
:1019E0008C012342848123428401224284012142CA
:1019F0009881214284012442A48122422DE9F041B0
:101A000000240025002600271D48007804280CD15A
:101A10001C484579077980791A30C4B21948C679CB
:101A200000201749087018490870184800780428E1
:101A30000CD117484579077980793430C4B21448FD
:101A4000C6790020114908701249087012480078C0
:101A500004280CD111484579077980794E30C4B2F9
:101A60000E48C67900200C4908700D490870612D98
:101A700004D13A4631462046FFF7F4FCBDE8F08138
:101A80003A000020080100203B0000203800002020
:101A90006C0100203900002036000020D001002019
:101AA0003700002010B586B00446012144F204003E
:101AB000FEF750FD4FF40070ADF8140003208DF8D0
:101AC000160018208DF8170005A91C48FEF7D9FB51
:101AD0004FF48060ADF8140004208DF8170005A9BC
:101AE0001648FEF7CEFB25208DF8000003208DF868
:101AF00001008DF8020001208DF803006846FEF712
:101B0000DFFC01940020ADF80800ADF80A00ADF844
:101B10000C00ADF810000C20ADF80E0001A908482B
:101B2000FFF7FEF8012240F225510548FFF7D3F8F0
:101B300001210348FFF78CF806B010BD00080140F2
:101B40000038014070B504460D4600260DE03046D1
:101B5000721CD6B2215C0748FFF753F900BF802101
:101B60000448FFF781F80028F9D0AE42EFDB0026E9
:101B700070BD00000044004010B586B0044601214D
:101B80004804FEF7D7FC01210420FEF7E3FC042003
:101B9000ADF8140003208DF8160018208DF81700FA
:101BA00005A91C48FEF76DFB0820ADF814000420C1
:101BB0008DF8170005A91748FEF763FB26208DF85E
:101BC000000003208DF8010004208DF802000120A0
:101BD0008DF803006846FEF773FC01940020ADF811
:101BE0000800ADF80A00ADF80C00ADF810000C20AC
:101BF000ADF80E0001A90848FFF792F8012240F263
:101C000025510548FFF767F801210348FFF720F841
:101C100006B010BD000801400044004070B5044605
:101C20000D4600260DE03046721CD6B2215C0748F6
:101C3000FFF7E7F800BF80210448FFF715F80028F8
:101C4000F9D0AE42EFDB002670BD0000004C004032
:101C500010B586B004460121C804FEF76BFC0121D3
:101C60001020FEF777FC4FF48060ADF814000320DD
:101C70008DF8160018208DF8170005A91C48FEF7EE
:101C800000FB4FF40060ADF8140004208DF817003D
:101C900005A91748FEF7F5FA34208DF80000032057
:101CA0008DF8010005208DF8020001208DF8030059
:101CB0006846FEF705FC01940020ADF80800ADF879
:101CC0000A00ADF80C00ADF810000C20ADF80E00C5
:101CD000012240F225510748FEF7FDFF01A9054802
:101CE000FFF71EF801210348FEF7B2FF06B010BD52
:101CF00000100140004C004070B504460D4600261F
:101D00000DE03046721CD6B2215C0748FFF779F827
:101D100000BF80210448FEF7A7FF0028F9D0AE429B
:101D2000EFDB002670BD00000050004010B586B00B
:101D3000044601210805FEF7FDFB01211020FEF7F6
:101D400009FC01212020FEF705FC4FF48050ADF87E
:101D5000140003208DF8160018208DF8170005A92F
:101D60001B48FEF78EFA0420ADF814008DF817001A
:101D700005A91848FEF785FA35208DF800000320E4
:101D80008DF8010006208DF8020001208DF8030077
:101D90006846FEF795FB01940020ADF80800ADF809
:101DA0000A00ADF80C00ADF810000C20ADF80E00E4
:101DB000012240F225510848FEF78DFF01A906488F
:101DC000FEF7AEFF01210448FEF742FF06B010BD4A
:101DD000001001400014014000500040FC1D0008AC
:101DE00000000020A40000006C010008A01E0008F4
:101DF000A4000020BC0900008801000800A24A04D9
:101E000000000000000000000102030406070809AA
:101E10000000000001020304010203040607080990
:101E2000020406080000000000000000000000009E
:101E300000000000000000000000FFFF1202003060
:101E4000FEFEFFFF120402400201FEFEFFFF120E23
:101E500000500102030405060708090A0B0CFEFEE8
:101E6000FFFF1203002400FEFEFFFF150301100117
:101E7000FEFEFFFF1503011101FEFEFFFF1503012A
:101E80001201FEFEFFFF6503016001FEFEFFFF651C
:101E90000301610101FEFE000000000000000000DF
:0400000508000131BD
:00000001FF
