:020000040800F2
:10000000F80A0020CD0100082505000815040008A5
:10001000210500087D020008270C000800000000F0
:10002000000000000000000000000000B106000811
:10003000810200080000000099050008C5070008BB
:10004000E7010008E7010008E7010008E7010008F0
:10005000E7010008E7010008E7010008E7010008E0
:10006000E7010008E7010008E7010008E7010008D0
:10007000E7010008E7010008E7010008E7010008C0
:10008000E7010008E7010008E7010008E7010008B0
:10009000E7010008E7010008E7010008E7010008A0
:1000A000E7010008E7010008E7010008E701000890
:1000B000E701000829080008E7010008E701000837
:1000C000E7010008E7010008E7010008E701000870
:1000D000E7010008A1090008E7010008E70100089E
:1000E000E7010008E7010008E7010008E701000850
:1000F000E7010008E7010008E7010008E701000840
:10010000E7010008E7010008E7010008E70100082F
:10011000E7010008E7010008E7010008E70100081F
:10012000E7010008E7010008E7010008E70100080F
:1001300000F002F800F03AF80AA090E8000C8244BF
:100140008344AAF10107DA4501D100F02FF8AFF29C
:10015000090EBAE80F0013F0010F18BFFB1A43F0A5
:10016000010318471412000034120000103A24BF93
:1001700078C878C1FAD8520724BF30C830C144BF0C
:1001800004680C607047000000230024002500264E
:10019000103A28BF78C1FBD8520728BF30C148BFEA
:1001A0000B6070471FB51FBD10B510BD00F033F8D0
:1001B0001146FFF7F7FF00F07DFE00F051F803B4A1
:1001C000FFF7F2FF03BC00F030FD00000948804754
:1001D00009480047FEE7FEE7FEE7FEE7FEE7FEE729
:1001E000FEE7FEE7FEE7FEE704480549054A064B41
:1001F00070470000C907000831010008F80400201A
:10020000F80A0020F8060020F80600207047704722
:10021000704770477047754600F02CF8AE460500F1
:100220006946534620F00700854618B020B5FFF711
:10023000DBFFBDE820404FF000064FF000074FF015
:1002400000084FF0000B21F00701AC46ACE8C009F4
:10025000ACE8C009ACE8C009ACE8C0098D467047FD
:1002600010B50446AFF300802046BDE81040FFF70C
:10027000A6BF0000004870479404002000BFFEE7BE
:1002800070472DE9F041024600250026002000239A
:100290000024002791F803C00CF00F0591F803C06B
:1002A0000CF0100CBCF1000F03D091F802C04CEA26
:1002B000050591F800C0BCF1000F31D01468002092
:1002C0002BE04FF0010C0CFA00F3B1F800C00CEA7F
:1002D00003069E4220D183004FF00F0C0CFA03F767
:1002E000BC4305FA03FC4CEA040491F803C0BCF1DA
:1002F000280F06D14FF0010C0CFA00FCC2F814C014
:100300000AE091F803C0BCF1480F05D14FF0010C91
:100310000CFA00FCC2F810C0401C0828D1D31460AD
:10032000B1F800C0BCF1FF0F34DD546800202EE0AE
:1003300000F1080C4FF0010808FA0CF3B1F800C006
:100340000CEA03069E4221D183004FF00F0C0CFAF9
:1003500003F7BC4305FA03FC4CEA040491F803C01C
:10036000BCF1280F05D100F1080C08FA0CF8C2F80E
:10037000148091F803C0BCF1480F07D100F1080CBC
:100380004FF0010808FA0CF8C2F81080401C082849
:10039000CED35460BDE8F0810246002093680B4044
:1003A0000BB1012000E00020704700000EB5174897
:1003B000006802901548001D00680190134808303D
:1003C000006800900098000E114988710098000C98
:1003D000C8710098000A0872009848720198000ECF
:1003E00088720198000CC8720198000A087301987D
:1003F00048730298000E88730298000CC873029824
:10040000000A0874029848740EBD0000E8F7FF1F48
:100410004B00002000BFFEE708B501214FF4EE704D
:1004200000F0CCF810208DF8030003208DF80200B6
:100430000820ADF8000069463348FFF722FF082086
:10044000ADF8000069463148FFF71BFF2020ADF8EA
:10045000000069462D48FFF714FF0220ADF80000A8
:1004600069462B48FFF70DFF0820ADF800006946EC
:100470002748FFF706FF2020ADF800006946244812
:10048000FFF7FFFE8020ADF8000069462048FFF727
:10049000F8FE4FF40070ADF8000069461C48FFF705
:1004A000F0FE0220ADF8000069461A48FFF7E9FEA9
:1004B0000820ADF8000069461648FFF7E2FE02206A
:1004C000ADF8000069461448FFF7DBFE4020ADF8A8
:1004D000000069461148FFF7D4FE2020ADF8000067
:1004E00069460D48FFF7CDFE8020ADF80000694653
:1004F0000948FFF7C6FE0220ADF80000694607482C
:10050000FFF7BFFE08BD00000020014000180140B9
:10051000001C01400010014000080140000C014097
:1005200000BFFEE77047000070B5002100230F22D6
:10053000C47804B3154C246804F4E064C4F5E064A2
:10054000210AC1F10403CA40447804FA03F1847813
:100550001440214309010E4C0678A155047804F09B
:100560001F050124AC4005786D11AD0005F1E025B3
:10057000C5F8004109E0047804F01F050124AC40EF
:10058000044D0678761145F8264070BD0CED00E06C
:1005900000E400E080E100E07047000029B1064A75
:1005A000D2690243044BDA6104E0034AD269824310
:1005B000014BDA61704700000010024029B1064A81
:1005C00092690243044B9A6104E0034A92698243B0
:1005D000014B9A61704700000010024030B50021C5
:1005E0000022002400232D4D6D6805F00C0121B17F
:1005F000042905D0082923D105E0294D056022E012
:10060000274D05601FE0254D6D6805F47012234DE0
:100610006D6805F48034022505EB92421CB9214D2A
:10062000554305600BE01D4D6D6805F400351DB1A7
:100630001C4D5543056002E0194D5543056002E02D
:10064000174D056000BF00BF144D6D6805F0F00147
:100650000909154D6B5C0568DD4045600F4D6D68FF
:1006600005F4E061090A104D6B5C4568DD4085606A
:100670000A4D6D6805F46051C90A0B4D6B5C456805
:10068000DD40C560054D6D6805F44041890B074D9F
:100690006B5CC568B5FBF3F5056130BD0010024029
:1006A00000127A0000093D00140000202400002000
:1006B000704710B500F002F810BD00000CB5002026
:1006C000019000903348006840F480303149086060
:1006D00000BF3048006800F4003000900198401CD2
:1006E0000190009818B90198B0F5A06FF1D1294890
:1006F000006800F4003010B10120009001E00020FB
:1007000000900098012843D12348006840F0100071
:10071000214908600846006820F003000860084688
:10072000006840F0020008601A48406819494860B3
:100730000846406848600846406840F48060486069
:100740000846406820F47C1048600846406840F441
:10075000E81048600846006840F08070086000BFFC
:100760000C48006800F000700028F9D00948406883
:1007700020F00300074948600846406840F0020046
:10078000486000BF0348406800F00C000828F9D119
:100790000CBD00000010024000200240042808D1D7
:1007A0004FF0E021096941F004014FF0E0221161AE
:1007B00007E04FF0E021096921F004014FF0E02249
:1007C000116170477047000010B51348006840F091
:1007D00001001149086008464068104908400E4968
:1007E0004860084600680E4908400B490860084602
:1007F000006820F4802008600846406820F4FE006D
:1008000048604FF41F008860FFF753FF4FF000600F
:100810000449086010BD0000001002400000FFF80D
:10082000FFFFF6FE08ED00E010B50121054800F0DD
:100830004AF828B10121034800F036F800F084FBA3
:1008400010BD0000000400407FB505460C460121A4
:100850000220FFF7A3FEADF80850ADF804400020D9
:10086000ADF80A00ADF8060001A90E4800F046F800
:10087000012211460B4800F037F81D208DF80000CA
:1008800000208DF8010003208DF8020001208DF872
:1008900003006846FFF748FE0121024800F007F810
:1008A0007FBD000000040040CA430282704721B1AE
:1008B000028842F00102028004E002884FF6FE73D3
:1008C0001A400280704730B5024600200023002401
:1008D000158A05EA0103958905EA010413B10CB1F3
:1008E000012000E0002030BD1AB183890B438381D1
:1008F00002E083898B4383817047000000220288D5
:100900001D4B98420ED01D4B98420BD0B0F1804F3A
:1009100008D01B4B984205D01A4B984202D01A4B74
:10092000984204D14FF68F731A404B881A43174BE5
:10093000984207D0164B984204D04FF6FF431A4016
:10094000CB881A4302808B8883850B8803850A4BEA
:1009500098420BD0094B984208D00E4B984205D0D4
:100960000D4B984202D00D4B984201D10B7A038671
:100970000123838270470000002C014000340140B5
:100980000004004000080040000C0040001000403F
:100990000014004000400140004401400048014074
:1009A00010B540F225512D4800F079F8002854D0B8
:1009B0002A4800F02FF9C4B2FF2C1BD12848007838
:1009C00010B101280BD106E0002026490870012053
:1009D0002349087003E002202149087000BF00BFCE
:1009E00021482049097844541E480078401C1D497C
:1009F000087032E0FE2C1FD119480078022802D07E
:100A000003280AD103E003201549087009E00420F7
:100A10001349087000F0D2FA03E002201049087070
:100A200000BF00BF10480F49097844540D480078B2
:100A3000401C0C49087010E009480078022809D1D0
:100A4000094808490978445406480078401C05497B
:100A5000087002E0204600F011F910BD0038014096
:100A600036000020370000207000002021B182896C
:100A700042F40052828104E082894DF6FF731A40ED
:100A80008281704702460020B1F5007F00D100BF8F
:100A900013880B400BB1012000E00020704770B5B7
:100AA0000246002400230025002040F66A16B142C9
:100AB00000D100BFC1F3421501F01F03012606FA61
:100AC00003F3012D02D19689334006E0022D02D1B5
:100AD000168A334001E0968A33400C12012606FA4A
:100AE00004F41688344013B10CB1012000E000205A
:100AF00070BDF0B50346002400260025002040F616
:100B00006A17B94200D100BF1846C1F3421401F080
:100B10001F06012707FA06F5012C01D10C3004E06D
:100B2000022C01D1103000E014301AB107682F43B5
:100B3000076002E00768AF430760F0BD2DE9F047AA
:100B400086B005460E460024A24600BFA1460027F7
:100B5000B08900B100BF2F462C8A4CF6FF700440CC
:100B6000F08804432C82AC894EF6F3100440B08820
:100B700031890843718908430443AC81AC8A4FF63C
:100B8000FF400440B0890443AC8201A8FFF726FD72
:100B90001F48874202D1DDF810A001E0DDF80CA06B
:100BA000A88900F4004040B10AEBCA0000EB0A102B
:100BB00031684900B0FBF1F807E00AEBCA0000EB2E
:100BC0000A1031688900B0FBF1F86420B8FBF0F03E
:100BD00004012009642101FB1089A88900F4004068
:100BE00040B1322000EBC900B0FBF1F000F007008B
:100BF000044308E0322000EB09106421B0FBF1F05F
:100C000000F00F0004432C8106B0BDE8F08700001F
:100C10000038014001468888C0F308007047C1F3DE
:100C200008028280704700BFFEE7014600BF7047A0
:100C300000B5002300BF04E0184600F08FFA581CEE
:100C4000C3B20E2BF8DB00BD70B504460D4600267E
:100C50000DE03046721CD6B2215C0748FFF7DFFF7B
:100C600000BF80210448FFF70DFF0028F9D0AE42F5
:100C7000EFDB002670BD00000038014019490988EB
:100C800001F4004161BB1749098801F4804161B159
:100C90000D2803D00021134A118021E01149098851
:100CA00041F400410F4A11801AE00A2806D10D498B
:100CB000098841F480410B4A118011E009490988F3
:100CC000C1F30D01084A505406490988491C054AD8
:100CD000118011460988B1F5FA7F01DB00211180EE
:100CE00070470000300000206402002010B52A4840
:100CF000007804284ED100F0DBF9284890F8030171
:100D0000002842D0254890F80201202818D006DC9F
:100D100010280BD011281AD0122835D124E023280E
:100D20001FD040282AD050282ED12AE001201C496B
:100D300008701A4880781B49087000F023F923E0F6
:100D40001649887800F0BCF800F01CF91CE000207F
:100D50001349087013490870FFF76AFF00F012F991
:100D600012E000F031F90FE002200D4908700B4845
:100D700080780C49087000F005F905E000F04AF9A8
:100D800002E000F063F900BF00BF002002490870D4
:100D90000549087010BD00003600002090030020B7
:100DA0006A000020680000203700002010B50348CA
:100DB0000078012801D1FFF799FF10BD3400002011
:100DC00010B56FF00400FFF7E9FC0A4800680A4913
:100DD000B0FBF1F0094908700846007800EB4001CB
:100DE000C1EBC0104FF6FF7101EAC0000449088052
:100DF00010BD00000000002000127A002800002032
:100E00002A0000200146114A12884A434FF0E0238D
:100E10005A6100229A611A46126942F001021A616F
:100E200000BF4FF0E022106900F001021AB100F497
:100E30008032002AF5D04FF0E022126922F0010240
:100E40004FF0E0231A6100229A6170472A000020C7
:100E500000B503460948007818B1184600F0D8F9E3
:100E600002E0184600F07AF90448007808B9012039
:100E700000E000200149087000BD0000380000209B
:100E800010B50A48007820B1012803D002280BD100
:100E900005E009E006480078FFF7DAFF04E00448BF
:100EA000007800F0B5F900BF00BF10BD6A00002057
:100EB0006800002000F0E6F800F054FA00BFFEE7FA
:100EC00010B50446012C06D0022C10D0032C1BD0E8
:100ED000042C33D125E00120194908604FF4FA7041
:100EE000FFF790FF00201749C1F8A40126E0012078
:100EF0001349091F08604FF4FA70FFF783FF0020C1
:100F00001049C1F8A00119E001200D490839086015
:100F10004FF4FA70FFF776FF00200A49C1F89C01F0
:100F20000CE0012006490C3908604FF4FA70FFF715
:100F300069FF00200349C1F8980100BF00BF10BD40
:100F4000A48121420080214210B50D480088401C38
:100F50000B490880FFF72AFF09480088142190FBFD
:100F6000F1F201FB120008B9FFF78AFF044800887C
:100F700042F21071884202DD00200149088010BD54
:100F80006C00002070B5002400250A4890F801018B
:100F900009490871032405E00748005D2844C5B2EB
:100FA000601CC4B2062CF7DB034885700821FFF7EC
:100FB0004BFE70BD90030020390000200120014944
:100FC000087070473400002070B5002400252021EF
:100FD0000D48FFF7E1F906460C4890F801010C496D
:100FE000087108468671032405E00948005D28441D
:100FF000C5B2601CC4B2072CF7DB05488570092117
:10100000FFF722FE70BD0000000C0140900300209D
:101010005F00002070B5002400250A4890F8010107
:1010200009490871032405E00748005D2844C5B25A
:10103000601CC4B2082CF7DB034885700A21FFF757
:1010400003FE70BD900300204100002070B5002415
:1010500000250A4890F8010109490871032405E0B8
:101060000748005D2844C5B2601CC4B2122CF7DBEF
:10107000034885701421FFF7E7FD70BD9003002041
:101080004B00002010B5FFF79BFE4FF4165000F008
:1010900019F9FFF7C1F941F61F4140F2F310FFF7CC
:1010A000D3FBFFF783F900F001F810BD7047000093
:1010B00010B500210020264A1278FF2A43D1244A85
:1010C0005278FF2A3FD1234A1278921E204B9A5C15
:1010D000FE2A38D11F4A1278521E9A5CFE2A32D15B
:1010E0001A4692781C4B83F80021194AD27883F86B
:1010F000FF20174A127983F80121154A527983F8A3
:10110000022103200BE0124A125C0A44D1B2104BB8
:10111000421C9B5CC21E104CA354421CD0B20D4A10
:101120001278921E8242EEDC0B4A92F800218A422B
:1011300004D10122084B83F8032108E00022064B6A
:1011400083F8032103E00022034B83F8032110BD41
:101150007000002037000020900300200F284AD2A2
:10116000DFE800F049080C11151A1F24292D32362A
:101170003A3F44000021214A11603CE000211F4A0F
:101180000832116037E000211D4A116033E0002170
:101190001B4A083211602EE00021194A10321160FA
:1011A00029E00021164A1832116024E00021144A77
:1011B000203211601FE00021124A11601BE0002163
:1011C000104A0832116016E000210F4A116012E047
:1011D00000210E4A11600EE000210B4A103211600E
:1011E00009E00021084A1832116004E00021074A92
:1011F000143A116000BF00BF704700008C01234209
:101200008481234284012242840121429881214227
:101210000F284AD2DFE800F049080C11151A1F24E4
:10122000292D32363A3F44000121214A11603CE029
:1012300001211F4A0832116037E001211D4A116067
:1012400033E001211B4A083211602EE00121194AC6
:101250001032116029E00121164A1832116024E091
:101260000121144A203211601FE00121124A11604D
:101270001BE00121104A0832116016E001210F4ADB
:10128000116012E001210E4A11600EE001210B4AAB
:101290001032116009E00121084A1832116004E09F
:1012A0000121074A143A116000BF00BF70470000D7
:1012B0008C01234284812342840122428401214201
:1012C0009881214210B586B00446012144F2040001
:1012D000FFF774F94FF40070ADF8140003208DF897
:1012E000160018208DF8170005A91C48FEF7C9FF45
:1012F0004FF48060ADF8140004208DF8170005A9A4
:101300001648FEF7BEFF25208DF8000003208DF85B
:1013100001008DF8020001208DF803006846FFF7F8
:1013200003F901940020ADF80800ADF80A00ADF80B
:101330000C00ADF810000C20ADF80E0001A9084813
:10134000FFF7FCFB012240F225510548FFF7D1FBD6
:1013500001210348FFF78AFB06B010BD00080140D9
:1013600000380140012002490870024908707047A6
:101370006A00002068000020981300080000002088
:10138000700000006C0100080814000870000020C4
:10139000880A00008801000800A24A04000000003A
:1013A0000000000001020304060708090000000015
:1013B00001020304010203040607080902040608E7
:1013C000000000000000000000000000000000001D
:1013D00000FFFF12020030FEFEFFFF120402400178
:1013E00001FEFEFFFF120E00500102030405060776
:1013F00008090A0B0CFEFEFFFF1203002400FEFE8C
:081400000000000000000000E4
:0400000508000131BD
:00000001FF
